:0400000079EF01F0A3
:08000800046ED8CF05F0E0CF33
:1000100006F00001E9CF0CF0EACF07F0E1CF08F0DD
:10002000E2CF09F0D9CF0AF0DACF0BF0F3CF12F01C
:10003000F4CF13F0FACF14F000C00EF001C00FF0AF
:1000400002C010F003C011F0F2AA2AEF00F0F2B4DF
:10005000B7EF00F00EC000F00FC001F010C002F0CA
:1000600011C003F00CC0E9FF07C0EAFF078E08C00B
:10007000E1FF09C0E2FF0AC0D9FF0BC0DAFF12C0DE
:10008000F3FF13C0F4FF14C0FAFF045006C0E0FFF2
:1000900005C0D8FF1000F76AA60FF66E000EF72213
:1000A0000900F55012008084888B8F93969A9EA148
:1000B000A5A9ACB0B3B6BABDC0C3C7CACCCFD2D560
:1000C000D7DADCDFE1E3E5E7E9EBEDEEF0F1F2F3BF
:1000D000F4F5F6F7F7F7F8F8F8F8F8F7F7F7F6F5B4
:1000E000F4F3F2F1F0EEEDEBE9E7E5E3E1DFDCDA82
:1000F000D7D5D2CFCCCAC7C3C0BDBAB6B3B0ACA9EE
:10010000A5A19E9A96938F8B8884807C7875716D5B
:100110006A66625F5B5754504D4A4643403D3936EC
:1001200034312E2B292624211F1D1B1917151312BC
:10013000100F0E0D0C0B0A09090908080808080918
:1001400009090A0B0C0D0E0F1012131517191B1DA0
:100150001F212426292B2E313436393D4043464A6F
:100160004D5054575B5F62666A6D7175787C206A8A
:10017000D76A190ED66E036A1650F2CF21F0F29E9E
:100180008ADF21BEF28E016E226A216E036A175049
:10019000F2CF23F0F29E7FDF23BEF28E016E036A60
:1001A0000150212603502222D89022302130206E87
:1001B000936A20C08AFF1850162619501726165029
:1001C000C70802E2C80E165E1750C70802E2C80E42
:1001D000175EF2942AEF00F0EA6A1E0EE96EEF5005
:1001E0000DE0060E016E006A002EFED7012EFBD731
:1001F0007B0E006E002EFED7EF2EF3D7000C166A92
:10020000176A186A196A1B50310806E01B50320839
:1002100003E01B50330803E10E0E186E23D01B5071
:10022000340806E01B50350803E01B50360803E194
:100230000F0E186E17D01B50370806E01B503808F9
:1002400003E01B50390803E1110E186E0BD01B5050
:100250002A0806E01B50300803E01B50230802E187
:10026000130E186E1B50310809E01B50340806E0CD
:100270001B50370803E01B502A0803E1180E196EC3
:100280001DD01B50320809E01B50350806E01B50FA
:10029000380803E01B50300803E11B0E196E0ED026
:1002A0001B50330809E01B50360806E01B50390884
:1002B00003E01B50230802E11E0E196ED190800E40
:1002C000D56EF28AC00EF2121DC003F01C50D8B4D5
:1002D0001D061C061E6E03C01FF01E5202E11F52B7
:1002E00004E0010E1E6E78DFEFD7F29A936A8A6AF5
:1002F000000CF86AD09E078EEA6AE96AC150C00B0A
:100300000F09C16E070EB46E928080A011D0310E1D
:100310001B6E010E1D6EF40E1C6E71DFC80E1E6E7C
:100320005BDF320E1B6E010E1D6EF40E1C6E67DF5E
:04033000EBD7030004
:020000040030CA
:0E0000003FCC3E1E000781000FC00FE00F40F6
:00000001FF
;PIC18F2550
;CRC=CF9A  CREATED="16-sep-11 19:05"
