:04000000B9EF02F062
:08000800046ED8CF05F0E0CF33
:1000100006F00001E9CF0CF0EACF07F0E1CF08F0DD
:10002000E2CF09F0D9CF0AF0DACF0BF0F3CF12F01C
:10003000F4CF13F0FACF14F000C00EF001C00FF0AF
:1000400002C010F003C011F09DAA2AEF00F09EBA82
:1000500088EF00F00EC000F00FC001F010C002F0F9
:1000600011C003F00CC0E9FF07C0EAFF078E08C00B
:10007000E1FF09C0E2FF0AC0D9FF0BC0DAFF12C0DE
:10008000F3FF13C0F4FF14C0FAFF045006C0E0FFF2
:1000900005C0D8FF1000F2CF0DF0F29EF76AB00F46
:1000A000F66E000EF7220900F5500DBEF28E12001A
:1000B00041542B434C49503D310D0000F2CF0DF01F
:1000C000F29EF76AD60FF66E000EF7220900F55081
:1000D0000DBEF28E120041542B434D47463D310D6B
:1000E0000000F2CF0DF0F29EF76AFC0FF66E000EE4
:1000F000F7220900F5500DBEF28E120041542B4339
:100100004E4D493D322C322C302C302C300D00001D
:10011000F29CF29EF2BEFDD79D9A0101516B526B8B
:100120009EAA1DD09EAAFED7AECF18F018500A087E
:1001300003E018500D0802E1010E516F18500A0833
:100140000DE21850A5080AE35051502B036A3C0FEA
:10015000E96E000E0320EA6E18C0EFFFE1D7503DB4
:1001600001D0506B9D8AC00EF2129E9A00012AEFB8
:1001700000F04154410D0000010EEA6E560EE96E8A
:10018000EF500EE00F0E016E006A002EFED7012E1A
:10019000FBD78F0E006E002EFED70000EF2EF2D799
:1001A000000CEF5210E0EACF56F1E9CF55F1EF50D5
:1001B0009EA8FED7AD6E56C1EAFF55C1E9FFE92AF8
:1001C000D8B4EA2AEED7000C56C103F0010155C19C
:1001D000E9FF56C1EAFFEF5239E056C15AF155C165
:1001E00059F158C15CF157C15BF15CC103F05BC1CF
:1001F000E9FF5CC1EAFFEF5216E059C1E9FF5AC1BD
:10020000EAFFEFCF5DF15CC103F05BC1E9FF5CC1C8
:10021000EAFFEF505D5D07E1592BD8B45A2B5B2BF9
:10022000D8B45C2BE2D75CC103F05BC1E9FF5CC1D1
:10023000EAFFEF5205E155C101F056C102F009D0C5
:10024000552BD8B4562B0001BFD70101000E016E0B
:10025000026E0001000C0101506B503D01D00AD02C
:10026000036A50513C0FE96E000E0320EA6EEF6AFC
:10027000502BF3D7506B0001000C0900F5520DE034
:10028000F6CF55F1F7CF56F1F5509EA8FED7AD6EDB
:1002900055C1F6FF56C1F7FFF0D73DEF02F001015F
:1002A000512DFAD052534AE1566B3C0E556F586BA4
:1002B000370E576F000188DF02C056F101C055F1BB
:1002C0000101555302E1565339E0566B3C0E556F10
:1002D000586B190E576F000177DF02C056F101C04D
:1002E00055F10101555302E1565328E0566B3C0E7F
:1002F000556F586B250E576F000166DF02C056F12F
:1003000001C055F10101555302E1565317E00001B8
:10031000A2DF040E0101526F949A8B8A94928B8211
:10032000960E566F000128DF949A8B9A94928B92C6
:10033000FA0E0101566F00011FDF0101010E505D31
:10034000036A3C0FE96E000E0320EA6EEF500D08C1
:1003500023E1020E505D036A3C0FE96E000E03209C
:10036000EA6EEF504B0818E1030E505D036A3C0F34
:10037000E96E000E0320EA6EEF504F080DE1949CE9
:100380008B8C320E566F0001F7DE949C8B9C63DFE2
:100390000101506B010E526F010E505D036A3C0F5C
:1003A000E96E000E0320EA6EEF500D0830E1020EF8
:1003B000505D036A3C0FE96E000E0320EA6EEF50B9
:1003C000520825E1030E505D036A3C0FE96E000EF2
:1003D0000320EA6EEF504F081AE1040E505D036AE5
:1003E0003C0FE96E000E0320EA6EEF5052080FE159
:1003F000949E8B8E320E566F0001BEDE949E8B9EB5
:100400000101506B000127DF020E0101526F5253B0
:100410003EE1566B3C0E556F586B320E576F000124
:10042000D3DE02C056F101C055F10101555302E17E
:1004300056532DE0566B3C0E556F586B190E576F87
:100440000001C2DE02C056F101C055F10101555351
:1004500002E156531CE00001FEDE030E0101526F63
:10046000949A8B8A94928B82960E566F000184DE4A
:10047000720EF66E010EF76E00D7949A8B9A9492D4
:100480008B92FA0E0101566F000176DE0101516B6D
:1004900052C101F004D003D0000E016E00D0000163
:1004A000000CFA0E0101566F000166DE0101512DAC
:1004B00001D011D0010EEA6E3C0EE96E000171DE32
:1004C000060E0101556FFA0E566F000155DE01014F
:1004D000552FF9D7ECD70001E2DE012C01D001D075
:1004E000E5D7000CC69E9E9657C1C9FF020EC6BE38
:1004F00005D09EA6FED7000EC5BC010E016E000CF5
:10050000C580C5B0FED756C157F1ECDF01500101DF
:10051000549101B0548155C157F10001E3DF0150FE
:100520000101549101B05481C584C5B4FED7C70EF2
:10053000006E002EFED700D000019BEF03F0410EAD
:100540009EA8FED7AD6E540E9EA8FED7AD6E440E8B
:100550009EA8FED7AD6EEA6A190EE96E22DE3B0E4A
:100560009EA8FED7AD6E0D0E9EA8FED7AD6EAFEF66
:1005700003F0F86AD09E078EEA6AE96AB886700EC0
:10058000AF6E020EB06EA60EAC6E900EAB6E938C7C
:100590009388770EC86E290EC66EC78EC79CFF0E55
:1005A000C86E280EC66E0101506B516B526B536BB7
:1005B000000E7E6EC190C192C194C1967F6EB46AE6
:1005C000166A176A330E196E340E1A6E330E1B6ECE
:1005D000340E1C6E1D6E360E1E6E1F6E390E206E92
:1005E000330E216E226E236A410E256E630E266E37
:1005F000740E276E690E286E760E296E610E2A6EB5
:10060000720E2B6E410E2C6E420E2D6E300E2E6E23
:10061000310E2F6E306A520E326E490E336E4E0E10
:10062000346E470E356E366A2B0E376E430E386EBB
:100630004D0E396E540E3A6E3B6A94988B98140E98
:10064000556F9B0E566F000197DD0101552FF9D7AD
:1006500094988B883C0E556FFA0E566F00018CDD16
:100660000101552FF9D7949A8B8A080E556FFA0E0F
:10067000566F000181DD0101552FF9D79D8AC00E0B
:10068000F212410E9EA8FED7AD6E540E9EA8FED764
:10069000AD6E0D0E9EA8FED7AD6E010EEA6E3C0E3D
:1006A000E96EF2CF55F1F29E000E0001F4DC0A0073
:1006B0000900F550EE6E0009FBE1010155BFF28E15
:1006C0000001EFDE010EEA6E3C0EE96EF2CF55F14D
:1006D000F29E000EF3DC0A000900F550EE6E0009F0
:1006E000FBE1010155BFF28E0001DBDE010EEA6E77
:1006F0003C0EE96EF2CF55F1F29E000EF2DC0A00DC
:100700000900F550EE6E0009FBE1010155BFF28EC4
:100710000001C7DE949A8B9A9D8AC00EF2129286CF
:1007200080B617D0949A8B8A53C155F1B80E010147
:10073000566F0001E5D6C80E0101566F00011CDDA1
:10074000949A8B9A0101532B5351030801E1536B87
:100750000001948482B40AD0949A8B8AF0D6C80E91
:100760000101566F000108DD949A8B9A948682B637
:100770001AD094928B8294908B80949A8B8A080ED4
:100780000101556FFA0E566F0001F6DC0101552F7D
:10079000F9D7010E516F000182DD94928B929490F3
:1007A0008B90949A8B9A938C81BC09D0949A8B8A63
:1007B000C80E0101566F0001DFDC949A8B9A01018B
:1007C000512D03D000016BDD01010001A5D703000D
:020000040030CA
:0E00000020F21E1E0008810003C003E0034032
:00000001FF
;PIC18F14K50
;CRC=1563  CREATED="22-ago-11 18:18"
