:1000000000308A00AB280000FF00030E8301A1002E
:100010000A08A0008A010408A2007708A300780853
:10002000A4007908A5007A08A600831383128C30F7
:100030008400801D1D288C192E2822088400230886
:10004000F7002408F8002508F9002608FA0020081F
:100050008A00210E8300FF0E7F0E09008A110A120A
:1000600031288316941A3C288312AF018316141D7D
:100070003C288312AF17831683122F08AF0AA800FB
:1000800028087F3C031C4F2883168C1183121413FD
:100090008C1D482813081416A9000130AA0028084E
:1000A0007F3C03186C2883168C1183122B08B40034
:1000B0003408930014168C11831614185D28F80167
:1000C0008312141AF80A14138C1D642813081416CA
:1000D00083168612831286168C118A110A121D2825
:1000E0003130840083130008031983280630F80098
:1000F000F701F70B7928F80B78287B30F700F70B1E
:100100007F28800B76280800AB012E1C892801303F
:10011000AB07AE1C8D280230AB072E1D9128043092
:10012000AB07AE1D95280830AB072E1E992810305E
:10013000AB07AE1E9D282030AB072E1FA1284030F4
:10014000AB07AE1FA5288030AB078316861283123B
:1001500086122D100800840183131F308305A71514
:10016000270883168700831227162708831687001F
:10017000B830930036308312940083161114831222
:10018000AA01AB01AC012D1083161F149F141F157B
:100190009F1107309C00FF308312A7000330AF008F
:1001A000B0012E10AE10C93083168600FF308800D3
:1001B000C03083128B0483168C1586128312861628
:1001C000C830B10070208316051483120518EF287B
:1001D000AC08031DEF280130AC002E1484208316D8
:1001E000061483120618FB283008023C031CFB2867
:1001F000AE148420B00A2E1D09298316851483129B
:10020000851C0929831686168312861E09292E113C
:100210002D14831685148312851827292E19272952
:10022000831686168312861E2729FA30B1007020A5
:100230002D142E15831606121030831286060030F8
:10024000AE1A0130013AF800AE127818AE16AE1DA3
:100250003529831605158312051D35298316861643
:100260008312861E3529AE112D14831605158312AF
:1002700005195329AE195329831686168312861E33
:100280005329FA30B10070202D14AE1583160611D3
:1002900004308312860600302E1B0130013AF8002C
:1002A0002E1378182E172E1E61298316851583129A
:1002B000851D6129831686168312861E61292E12DA
:1002C0002D1483168515831285197F292E1A7F29EF
:1002D000831686168312861E7F29FA30B10070209D
:1002E0002D142E16831686100230831286060030D7
:1002F000AE1B0130013AF800AE137818AE172A0B86
:10030000C529290B88298316861083128614A90112
:100310002908023C031D9129831606118312061534
:10032000A9012908033C031D9A298316061283128A
:100330000616A90129080B3C031DA3298316861064
:1003400083128610A90129080C3C031DAC298316D1
:10035000061183120611A90129080D3C031DB529B8
:100360008316061283120612A9012908143C031DE4
:10037000BC29AC012E10A9012908163C031DC32974
:10038000B001AE10A901AA012D142D18C9292A0BFC
:10039000CA2984209630B100702083168C15E42879
:0203A0006300F8
:02400E00323F3F
:00000001FF
;PIC16F877A
;CRC=3328  CREATED="19-sep-11 20:26"
